:100000000C948C030C94B4030C94B4030C94B403BC
:100010000C94B4030C94B4030C94B4030C94B40384
:100020000C94B4030C94B4030C94DC050C940707F3
:100030000C94B4030C94B4030C94B4030C94B40364
:100040000C94B4030C94B4030C94B4030C94B40354
:100050000C94B4030C94B4030C94B4030C947F0973
:100060000C94B4030C94B4030C94B4030C94B40334
:100070000C94B4030C94B4030C94B4030C94B40324
:100080000C94B4030C94B4030C94B4030C94B40314
:100090000C94B4030C94B4030C94B4030C94B40304
:1000A0000C94B4030C94B4030C94B403D60ED90E80
:1000B000DC0EDF0EE20EE50EE80EEB0E26102D1024
:1000C00036103D1046104D1056105D1016101D10C4
:1000D0008E1093109E10A310AE10B310BE10C3105C
:1000E0007E108310F0F89C8E8783878E9CF8F0003A
:1000F00000FEFF0303030303070EFCF80000FEFFEE
:100100000303030303070EFCF80000FFFF000000D9
:1001100000000000FFFF0000FEFF8383838383C78E
:10012000EE7C380000F8FC0E07030303070EFCF812
:1001300000003F7FE0C08080C0E07F3FFFFF010103
:100140000101010101FFFF0000FFFF0C0C0C0C1C62
:100150003E77E3C100007FFFC0C0C0C0C0E0703F79
:100160001F00001F3F70E0C0C0C0E0703F1F0000D4
:100170007FFFC1C1C1C1C1E3773E1C00001F3F70BA
:10018000E0C0C0C0E0703F1F000000000001FFFFA2
:1001900001000000D5F08D14A1C881CFD9F1AF20A6
:1001A00000080B0002020201000904000001020223
:1001B00000000524001001052401010104240206A9
:1001C0000524060001070581031000400904010011
:1001D000020A000000070502024000000705830232
:1001E0004000000403090412010002EF0201404133
:1001F00023368000010102030141726475696E6F4C
:10020000204C4C430041726475696E6F204C656FE1
:100210006E6172646F0000000000003E5B4F5B3E49
:100220003E6B4F6B3E1C3E7C3E1C183C7E3C181CBB
:10023000577D571C1C5E7F5E1C00183C1800FFE7B2
:10024000C3E7FF0018241800FFE7DBE7FF30483A58
:10025000060E2629792926407F050507407F0525BA
:100260003F5A3CE73C5A7F3E1C1C08081C1C3E7F42
:1002700014227F22145F5F005F5F06097F017F0009
:100280006689956A606060606094A2FFA294080429
:100290007E040810207E201008082A1C08081C2A4A
:1002A00008081E101010100C1E0C1E0C30383E38A2
:1002B00030060E3E0E06000000000000005F000049
:1002C0000007000700147F147F14242A7F2A1223BA
:1002D0001308646236495620500008070300001CCA
:1002E0002241000041221C002A1C7F1C2A08083ED3
:1002F00008080080703000080808080800006060E6
:100300000020100804023E5149453E00427F400053
:1003100072494949462141494D331814127F10272B
:10032000454545393C4A494931412111090736497A
:10033000494936464949291E00001400000040344E
:100340000000000814224114141414140041221453
:100350000802015909063E415D594E7C1211127C7A
:100360007F494949363E414141227F4141413E7FDB
:10037000494949417F090909013E414151737F08BB
:1003800008087F00417F41002040413F017F081461
:1003900022417F404040407F021C027F7F040810C2
:1003A0007F3E4141413E7F090909063E4151215EA0
:1003B0007F09192946264949493203017F01033F34
:1003C0004040403F1F2040201F3F4038403F6314C3
:1003D00008146303047804036159494D43007F41C5
:1003E00041410204081020004141417F0402010202
:1003F0000440404040400003070800205454784027
:100400007F284444383844444428384444287F38BA
:100410005454541800087E090218A4A49C787F083C
:1004200004047800447D40002040403D007F1028B7
:10043000440000417F40007C047804787C08040478
:10044000783844444438FC1824241818242418FC10
:100450007C08040408485454542404043F44243CB5
:100460004040207C1C2040201C3C4030403C442824
:100470001028444C9090907C4464544C44000836BE
:10048000410000007700000041360800020102042C
:10049000023C2623263C1EA1A161123A4040207A4C
:1004A0003854545559215555794121545478412196
:1004B0005554784020545579400C1E5272123955CB
:1004C00055555939545454593955545458000045C8
:1004D0007C410002457D420001457C40F0292429F1
:1004E000F0F0282528F07C545545002054547C54C5
:1004F0007C0A097F493249494932324848483232F8
:100500004A4848303A4141217A3A42402078009D99
:10051000A0A07D39444444393D4040403D3C24FF47
:100520002424487E4943662B2FFC2F2BFF0929F6F4
:1005300020C0887E090320545479410000447D4145
:100540003048484A32384040227A007A0A0A727D9E
:100550000D19317D2629292F2826292929263048B9
:100560004D4020380808080808080808382F10C827
:10057000ACBA2F102834FA00007B000008142A14AB
:100580002222142A14089500220095AA005500AAD8
:10059000AA55AA55AA000000FF00101010FF001471
:1005A0001414FF001010FF00FF1010F010F01414CE
:1005B00014FC001414F700FF0000FF00FF1414F4F3
:1005C00004FC141417101F10101F101F1414141FF4
:1005D00000101010F0000000001F101010101F106D
:1005E000101010F010000000FF101010101010106C
:1005F0001010FF10000000FF140000FF00FF0000BB
:100600001F10170000FC04F414141710171414F42E
:1006100004F40000FF00F714141414141414F70069
:10062000F7141414171410101F101F141414F414BA
:100630001010F010F000001F101F0000001F140029
:100640000000FC140000F010F01010FF10FF141454
:1006500014FF141010101F00000000F010FFFFFF27
:10066000FFFFF0F0F0F0F0FFFFFF0000000000FFE0
:10067000FF0F0F0F0F0F38444438447C2A2A3E14D2
:100680007E02020606027E027E02635549416338FD
:1006900044443C04407E201E2006027E020299A5AE
:1006A000E7A5991C2A492A1C4C7201724C304A4D0C
:1006B0004D303048784830BC625A463D3E49494941
:1006C000007E0101017E2A2A2A2A2A44445F4444EA
:1006D00040514A444040444A51400000FF0103E079
:1006E00080FF000008086B6B083612362436060FB0
:1006F000090F06000018180000001010003040FF1D
:100700000101001F01011E00191D1712003C3C3C95
:100710003C0000000000D61211241FBECFEFDAE02B
:10072000DEBFCDBF11E0A0E0B1E0ECE8F7E202C02F
:1007300005900D92AA39B107D9F726E0AAE9B1E0F0
:1007400001C01D92A83CB207E1F713E0CCE8D3E06A
:1007500004C02197FE010E94B913CB38D107C9F715
:100760000E94200B0C94C4130C9400009C01225F87
:100770003F4F2E38310560F5FC0197FF02C0E0E0E5
:10078000F0E00F968138910514F080E890E08E1B20
:100790009B012770332791E001C0990F2A95EAF752
:1007A00077FF02C0695F7F4F23E0759567952A95B3
:1007B000E1F77695762F662777956795E60FF71F11
:1007C000EB5BFD4F815020F02081292B2193FACF44
:1007D000089520914402211103C08FEF9FEF0895E7
:1007E0005FB7F89422E02093E9002091F20030E016
:1007F0001216130614F421E030E0422FFC0184E6C7
:10080000415038F02898809343029091F1009193E1
:10081000F7CF2115310521F08091F200882319F0DE
:100820005FBFC90108958BE68093E800F9CF2FB729
:10083000F89483E08093E9009091E800892F80721A
:1008400095FF04C09091F20080E4891B2FBF0895AA
:10085000CF93DF931F92CDB7DEB76983DC01ED91B3
:10086000FC910280F381E02D41E050E0BE016F5F1A
:100870007F4F09950F90DF91CF91089583E080938A
:10088000E9008091F200882319F08AE38093E80060
:1008900008950E94170490E00895CF93DF931F926C
:1008A000CDB7DEB7FC018485958597FD05C02FEF98
:1008B0003FEF358724870BC0CE0101960E94E903E4
:1008C000019719F4898190E002C08FEF9FEF0F909C
:1008D000DF91CF9108950F931F93CF93DF931F92D2
:1008E000CDB7DEB78C01FC018485958597FF0EC0DE
:1008F000CE0101960E94E903019719F4898190E0E5
:1009000002C08FEF9FEFF80195878487F8018485F7
:1009100095850F90DF91CF911F910F910895FC0164
:100920008485958597FD0BC09FB7F89482E08093EE
:10093000E9008091F2009FBF90E0019608959FB773
:10094000F89482E08093E9008091F2009FBF90E0EC
:100950000895009769F0FC0101900020E9F73197B4
:10096000AF01481B590BBC0185E496E00C94C90902
:1009700080E090E008958F929F92AF92BF92CF92C5
:10098000DF92EF92FF920F931F93CF93DF936C014F
:100990007B018A0180910701882309F45CC0809162
:1009A0004402882309F457C08091420280FF05C0A9
:1009B0008091E00082608093E000E801B12C8AEF32
:1009C000A82E93E0892E2AE3922E209711F4BB20C3
:1009D000D9F10E94170481110AC0AA94AA20D9F162
:1009E00061E070E080E090E00E944509EECF282FA2
:1009F00030E0C217D3070CF48C2F9FB7F894809285
:100A0000E9002091E80025FF1DC0282F30E0C21B1F
:100A1000D30BF701815020F041914093F100FACFC0
:100A2000E20EF31EBB2019F09092E8000AC08091FC
:100A3000E80085FD07C09092E800BB24B39420979E
:100A400009F0B12C9FBFC1CF5D9884E680935C060E
:100A50001016110644F081E090E0F6019383828342
:100A600080E090E001C0C801DF91CF911F910F910C
:100A7000FF90EF90DF90CF90BF90AF909F908F90BE
:100A8000089580E0E5E4F2E081118FEF0024819386
:100A90008193819381930394D1F70895E5E4F2E083
:100AA000A0E0B8E000800EBC8111012C1197A0FDE0
:100AB000FDCF0192B9F70DB408950C94A904CF921B
:100AC000DF92EF92FF920F931F93CF93DF93CDB7F7
:100AD000DEB7A1970FB6F894DEBF0FBECDBF9C0165
:100AE00040E050E019A28E010F5D1F4F8AE0C82E32
:100AF000D12CE12CF12CCA01B901A70196010E9469
:100B00009713605DF80162938F012115310541054E
:100B1000510589F7CF010E94A904A1960FB6F89458
:100B2000DEBF0FBECDBFDF91CF911F910F91FF9020
:100B3000EF90DF90CF9008950F931F93CF93DF93A3
:100B4000EC0160E070E00E94B6036AE070E0CE0164
:100B50000E94B60300E010E041E0B801CE010E941F
:100B60000B0A0F5F1F4F0B301105B1F72E9600E0F7
:100B700010E041E0B801CE010E940B0A0F5F1F4F49
:100B80000B301105B1F7DF91CF911F910F910895AF
:100B90008091610681110DC082E080935D0684E042
:100BA00080935E061092600610925F0681E080934B
:100BB00061068DE596E008951F920F920FB60F9291
:100BC00011248F939F938091E1009091E100937F96
:100BD0009093E10083FF0FC01092E90091E09093A1
:100BE000EB001092EC0092E39093ED00109244021F
:100BF00098E09093F00082FF20C093E09093E9008A
:100C00009091F200992319F09AE39093E800909163
:100C10005C06992339F090915C06915090935C06A4
:100C2000992389F190914302992339F090914302DD
:100C3000915090934302992341F184FF10C0809119
:100C4000E2008E7E81608093E2008091E1008F7EE1
:100C50008093E100809142028E7E806111C080FF0E
:100C600016C08091E2008E7E80618093E2008091C8
:100C7000E1008E7E8093E100809142028E7E816051
:100C80008093420204C05D9ACDCF289AD6CF9F911F
:100C90008F910F900FBE0F901F9018954091C50631
:100CA0005091C6062091C3063091C40642175307DF
:100CB000B4F49091E8009570E1F39091E80092FD12
:100CC00019C08093F1008091C5069091C6060196E7
:100CD0008F739927892B19F48EEF8093E800809108
:100CE000C5069091C60601969093C6068093C506E8
:100CF00081E0089580E00895DF92EF92FF920F93D4
:100D00001F93CF93DF93D82E8A017B01E40EF51E4B
:100D1000EB01CE15DF0571F0D7FE03C0FE01849113
:100D200001C088810E944E0621968111F2CF8FEF7B
:100D30009FEF01C0C801DF91CF911F910F91FF90EC
:100D4000EF90DF900895615030F02091F100FC01A8
:100D500020830196F8CF289884E680934302089573
:100D60003FB7F8948091BF069091C006A091C1064C
:100D7000B091C20626B5A89B05C02F3F19F0019679
:100D8000A11DB11D3FBFBA2FA92F982F8827820F11
:100D9000911DA11DB11DBC01CD0142E0660F771F61
:100DA000881F991F4A95D1F708950F931F93CF93EA
:100DB000DF931F92CDB7DEB782E0898342E450E033
:100DC00061EA71E080E80E947C060E94C805DC01AF
:100DD00012960D911C9113970115110589F0D801F8
:100DE000ED91FC910280F381E02DBE016F5F7F4F9A
:100DF000C801099597FD04C0F80100851185ECCF65
:100E000089810F90DF91CF911F910F9108951F92CB
:100E10000F920FB60F921124CF92DF92EF92FF92B2
:100E20000F931F932F933F934F935F936F937F93F2
:100E30008F939F93AF93BF93EF93FF93CF93DF93E2
:100E4000CDB7DEB76C97DEBFCDBF1092E9008091C1
:100E5000E80083FFFBC168E0CE0145960E94A3062F
:100E600082EF8093E8008D8987FF05C09091E800AC
:100E700090FFFCCF03C09EEF9093E800982F9076F0
:100E800009F0C6C09E894F89588D2F89F88C911121
:100E90000CC0803829F48091BD068093F10002C017
:100EA0001092F1001092F10045C1913051F481117E
:100EB00041C14130510509F03DC18091BD068D7F92
:100EC0000BC0933061F4811135C14130510509F0F7
:100ED00031C18091BD0682608093BD062BC19530E3
:100EE00049F48091E80080FFFCCF822F80688093D6
:100EF000E30020C1963009F05EC00B8D1C8D22E00E
:100F00001092E9001092C6061092C506F21232C085
:100F10001092C4061092C3060E94D50699E0BE0145
:100F20006F5F7F4FDB01E92F1D92EA95E9F7998307
:100F3000FA8291E09E8390EA98879AEF99872091B0
:100F4000C5063091C606275F3F4F3C832B838D83B8
:100F50001092E9001092C6061092C5061093C406BE
:100F60000093C30649E050E080E00E947C060E94A6
:100F7000D506E0C01093C4060093C3060E94C805BE
:100F8000DC0112960D911C9113970115110509F4BE
:100F9000BBC0D801ED91FC910480F581E02DBE012C
:100FA0006B5E7F4FC8010995009709F0C7C0F80133
:100FB00000851185EACF973009F445C1983021F4B6
:100FC00081E08093F100B6C0993009F0B3C083701E
:100FD00009F039C1E3E3F1E081E031E096E32081FB
:100FE000211109C08EE78093EA001092EA008F89F0
:100FF000809344029FC08093E9003093EB002191DD
:101000002093EC009093ED008F5F873041F7EACF9B
:101010008B8D9C8D1092E9001092C6061092C50629
:101020009093C4068093C306898D811153C08E8925
:101030009D89913A49F4813209F005C147E050E0B9
:1010400060E071E080E0BBC0913209F0FCC0833207
:1010500069F48F89988DA0E0B0E0809308019093A7
:101060000901A0930A01B0930B0164C0803269F4B6
:101070008091E80082FFFCCF67E080E091E00E9471
:10108000A3068BEF8093E80055C0823209F052C06E
:101090008F8980930701EEEFFFE7859194918B3F55
:1010A0009C4D19F0E0E0F8E002C0EEEFFAE080912C
:1010B000000190910101A0910201B0910301803BD8
:1010C0009440A105B10509F09EC08091070180FF01
:1010D00079C099C00E94C805FC01028113810115E5
:1010E000110509F4B0C0D801ED91FC910190F08197
:1010F000E02DBE016B5E7F4FC801099581111AC0BA
:10110000F80100851185EBCFF1E0FF1609F44EC020
:10111000F3E0FF1298C08F89882309F44AC0823017
:1011200089F440E860E185E092E00E94071388239B
:1011300009F489C08EEF8093E80088C0181619065C
:10114000CCF381C0813029F440E86BE089EF91E075
:10115000ECCF833009F077C00E94C805DC011296FD
:10116000ED90FC9013978E010F5F1F4F6801E11403
:10117000F10479F0D701ED91FC910680F781E02D23
:10118000B801C7010995080F111DF701E084F1842A
:10119000EECFD8011C92F60101900020E9F73197BB
:1011A000BF016C197D0940E0C601BFCF67EE71E059
:1011B00002C063EE71E0FB01449150E080E80E94C0
:1011C0007C06B8CFEE3F2AE0F20751F08081918192
:1011D0008737A7E79A0721F09093FF0A8093FE0ACA
:1011E00087E797E791838083809160008093C706AB
:1011F0009BE088E10FB6F894A895809360000FBE3D
:101200009093600097CF808191818737974709F04D
:1012100091CFA89580916000886180936000809153
:10122000C70680936000EE3FBAE0FB0739F080917B
:10123000FE0A9091FF0A918380837CCF1092FF0A6F
:101240001092FE0A77CF81E28093EB006C960FB686
:10125000F894DEBF0FBECDBFDF91CF91FF91EF912C
:10126000BF91AF919F918F917F916F915F914F91BE
:101270003F912F911F910F91FF90EF90DF90CF90B2
:101280000F900FBE0F901F9018958F929F92AF9264
:10129000BF92CF92DF92EF92FF926B017C010E948E
:1012A000B0064B015C01C114D104E104F104F1F07A
:1012B0000E94B006DC01CB0188199909AA09BB0973
:1012C000883E9340A105B10570F321E0C21AD10810
:1012D000E108F10888EE880E83E0981EA11CB11C7D
:1012E000C114D104E104F10419F7DDCFFF90EF90B0
:1012F000DF90CF90BF90AF909F908F9008951F92F6
:101300000F920FB60F9211242F933F938F939F93B9
:10131000AF93BF938091B9069091BA06A091BB0696
:10132000B091BC063091BE0623E0230F2D3720F488
:101330000196A11DB11D05C026E8230F0296A11D2F
:10134000B11D2093BE068093B9069093BA06A09370
:10135000BB06B093BC068091BF069091C006A091D9
:10136000C106B091C2060196A11DB11D8093BF06B2
:101370009093C006A093C106B093C206BF91AF91EF
:101380009F918F913F912F910F900FBE0F901F90C3
:101390001895CF92DF92EF92FF920F931F93CF9306
:1013A000DF936C017A018B01C0E0D0E0CE15DF0540
:1013B00081F0D8016D918D01D601ED91FC910190E4
:1013C000F081E02DC6010995892B11F02196EECF11
:1013D0007E01C701DF91CF911F910F91FF90EF9098
:1013E000DF90CF9008950895089580E090E00895EB
:1013F0000E94BF132D9A0895BC0180E090E00C94E8
:1014000045098FB18095807F669B88601C9B8460B6
:1014100008950C94811380389105B8F460347105F7
:10142000A0F490E121E061FD24E060FD220F62FD67
:101430002295687F969FD0011124A80FAB5BBD4F0A
:101440008C91822B40FF82278C9308952F923F929C
:101450004F925F926F927F928F929F92AF92BF92C4
:10146000CF92DF92EF92FF920F931F93CF93DF9370
:10147000CDB7DEB727970FB6F894DEBF0FBECDBF4E
:101480009F838E836A30A1F4DC0155962C91559789
:1014900051968D919C915297B8E02B9F800D911D94
:1014A0001124EE81FF81928B818B108A1786ADC04B
:1014B0006D3009F4AAC0AE81BF811F960D911C91B9
:1014C000509700381105BCF0EE81FF812589422F2D
:1014D00050E087859089F6E02F9F800D911D1124A3
:1014E000AE81BF8150969C938E931F9756962C91F8
:1014F000211175C08AC0EE81FF8181889288F0E455
:101500008F1691040CF7AE81BF8155963C90C801AF
:10151000B5E03B9E800D911D112418161906A4F606
:10152000432C512CC401E8E03E9E800D911D1124F6
:10153000181619064CF6AE81BF815496BC91BC8337
:10154000EE81FF81F389FD8325E0629FB0011124C4
:10155000CB018A5E9D4F3C011982F3012490F981F1
:10156000F53009F4212C640128E02B8320FE03C010
:101570003D813A8302C08C818A839A81911104C093
:10158000AC81BD81AB17B9F078018E2D801B83151E
:1015900090F456018A2D8C19831548F44A81B501BF
:1015A000C7010E940B0AEFEFAE1ABE0AF3CFFFEF9E
:1015B000EF1AFF0AEACF26942B8121502B83C40C0B
:1015C000D51C2111D3CF39813F5F3983040D151DFF
:1015D000C30101963C01363009F0BFCF75CF6AEFE9
:1015E00064039001659F300D112420583F4F281748
:1015F00039075CF4AE81BF81ED91FC9111970190A8
:10160000F081E02D6AE0CD01099581E090E0279618
:101610000FB6F894DEBF0FBECDBFDF91CF911F9103
:101620000F91FF90EF90DF90CF90BF90AF909F9081
:101630008F907F906F905F904F903F902F90089584
:10164000789484B5826084BD84B5816084BD85B59D
:10165000826085BD85B5816085BD80916E008160A9
:1016600080936E001092810080918100826080934F
:101670008100809181008160809381008091800051
:1016800081608093800080919100826080939100BE
:1016900080919100816080939100809190008160A1
:1016A000809390008091C10084608093C1008091FC
:1016B000C10082608093C1008091C10081608093ED
:1016C000C1008091C30081608093C3008091C000FD
:1016D00082608093C0008091C20081608093C200CC
:1016E00080917A00846080937A0080917A00826091
:1016F00080937A0080917A00816080937A00809153
:101700007A00806880937A00109244021092BD069D
:10171000109242028091D70081608093D70080EAC6
:101720008093D80089B5806189BD89B5826089BD03
:1017300009B400FEFDCF61E070E080E090E00E941F
:1017400045098091D8008F7C80618093D80080917A
:10175000E000807F8093E0008091E1008E7E8093A6
:10176000E1008DE08093E200559A209A81EC80930D
:101770007C0085B1806F85B984B1877E84B984B1DE
:10178000876E84B95E9A5F988AB1806D8AB9769ABD
:101790006E9881B3806F81BB899880B38D7080BB58
:1017A00080E58CBD81E08DBD85E090E00E94FC0964
:1017B0005F9A85E090E00E94FC095E985C98E4E9FD
:1017C000F1E081EA91E024912EBD00000DB407FE06
:1017D000FDCF31968E179F07B1F75C9A81E8809311
:1017E00064008091650081608093650080E00E94C4
:1017F0004E050E94010A87FF24C05C9885EA8EBDD1
:1018000000000DB407FEFDCF5C9A2E982F982D98FE
:101810008091640080628093640081E083BF88953A
:1018200013BEFCCF2D980E94010A8478843871F091
:101830000E94010A8471843131F188EC90E00E94A9
:10184000FC090E94010A82FDEDCF3AC00E94FA090C
:1018500088EC90E00E94FC092F9882E090E00E94C2
:1018600081138F3F29F06FEF82E090E00E9489138F
:1018700084EF91E00E94FC092F9A0E94010A84786B
:101880008438D9F3D5CF0E94FA0988EC90E00E9401
:10189000FC092E9882E090E00E948113882329F0B1
:1018A00060E082E090E00E94891384EF91E00E9462
:1018B000FC092E9A0E94010A84718431D9F3BDCFAC
:1018C0000E94FA0982E090E00E94090A882319F038
:1018D0003E9A3F9A02C03E983F9881E090E00E9475
:1018E000090A282F2470D22E81FF83C021112E983F
:1018F000C0EFDFEF08E010E00E94010A86FF05C09C
:101900002E9A2F9A0E94FA0974C0DD2029F0C43063
:10191000D10511F42E9A2F9881E00E944E059E0168
:10192000D7FF04C0222733272C1B3D0B27703327FA
:10193000CE01D7FD079673E0959587957A95E1F7E7
:10194000D7FF05C00197A801421B530B9A01AC01B8
:101950005695542F4427579547954B5B5D4FA0E014
:10196000B0E04801821A930A8F3F6FEF96074CF45C
:101970000196A85ABF4F40585F4FA03BB105A1F751
:101980001EC07A01E4E9EE0EF11C5A0160E070E03D
:101990008F3FFFEF9F0709F42FC4FB01EA0FFB1FE6
:1019A000EC51FF4FE491F0E03F01022E01C0660CC4
:1019B0000A94EAF7F501C4886C28648A1DC480E0A3
:1019C0000E944E058FE090E00E94FC092196C931EB
:1019D000D10509F091CFDD2011F02F9A2D9880E9E3
:1019E00091E00E94FC090E94FA0985E496E00E94B9
:1019F0003C1382E390E00E94FC090E94010A8111DD
:101A0000F8CF0E9441051092570610925606109288
:101A100055061092540684E68093500681E090E0CB
:101A2000909341028093400210923F0210923E0236
:101A300010923D0210923C0288E090E090933B02AD
:101A400080933A02EAE9F1E02AE332E048E250E02A
:101A500080E090E0DF01A80FB91F1D921C92029652
:101A600080319105B9F7518B408B138A128A749695
:101A70002E173F0769F7C2E0D0E002E210E082E4EF
:101A8000882E912C7CE0272E312CEEE06E2E712CCE
:101A9000F8E44F2E512CA8E1EA2EF12CBCE2AB2E3B
:101AA000B12C8FB7F8944091B9065091BA06609165
:101AB000BB067091BC068FBF80915106F42FF81BB6
:101AC0008F2F90915206992329F0F093530610928C
:101AD00052068AC390915006F91748F48F5F891710
:101AE00008F082C381E083BF889513BE7DC381E087
:101AF000809352064093510680914C0690914D067A
:101B0000019690934D0680934C060E9441051092D9
:101B100057061092560610925506109254060E94CF
:101B2000010A87FF1FC080914002909141020197F6
:101B3000C9F4109241021092400280913E029091AD
:101B40003F028130910509F0A7C380913A0290913C
:101B50003B02009709F072C388E090E090933B024B
:101B600080933A020E94010A84FF1EC080914002C5
:101B7000909141020197C1F41092410210924002EB
:101B800020913E0230913F022130310509F0D7C348
:101B900080913A0290913B028830910509F09EC3F2
:101BA00010923B0210923A020E94010A85FF21C066
:101BB000209140023091410221303105D1F4109240
:101BC00041021092400280913E0290913F0281308A
:101BD000910509F4D8C308F032C480913C02909179
:101BE0003D028130910509F0F8C310923D02109238
:101BF0003C020E94010A86FF20C0409140025091A1
:101C0000410241305105C9F4109241021092400244
:101C100020913E0230913F022130310509F432C457
:101C200008F089C480913C0290913D02009709F030
:101C300050C450933D0240933C020E94010A83FF2E
:101C400016C020914002309141022130310579F4D3
:101C5000109241021092400280913E0290913F0208
:101C6000009709F08CC430933F0220933E020E94FB
:101C7000010A82FF17C020914002309141022130B9
:101C8000310581F4109241021092400280913E028F
:101C900090913F028130910509F079C410923F0282
:101CA00010923E02D0935506C0935406D093570627
:101CB000C093560689E391E00E945D0582E190E0C1
:101CC0009093550680935406D0935706C0935606BA
:101CD0008CE391E00E945D05109355060093540635
:101CE000D0935706C09356068FE391E00E945D059E
:101CF000E2E3F0E0F0935506E0935406D0935706E4
:101D0000C093560682E491E00E945D0590925506CC
:101D100080925406D0935706C093560685E491E00E
:101D20000E945D0542E550E05093550640935406ED
:101D3000D0935706C093560688E491E00E945D0553
:101D400082E690E09093550680935406D093570610
:101D5000C09356068BE491E00E945D05E2E7F0E057
:101D6000F0935506E0935406D0935706C093560659
:101D70008EE491E00E945D05C12CD12C41E06AE027
:101D800070E0C6010E940B0AFFEFCF1ADF0A21E8BC
:101D9000C216D10499F7E0913C02F0913D02E8307F
:101DA000F105E8F4EA5AFF4F0C94B91380E090E093
:101DB00014C080E190E011C080E290E00EC080E3AA
:101DC00090E00BC080E490E008C080E590E005C0A2
:101DD00080E690E002C080E790E00E949C0530928F
:101DE000550620925406709257066092560681E579
:101DF00091E00E945D0580913C0290913D0224E1BA
:101E0000D22ED89EF001D99EF00D1124E656FE4F39
:101E1000808991890E945F05509255064092540630
:101E2000709257066092560687E591E00E945D0524
:101E300080913C0290913D02D89EF001D99EF00D18
:101E40001124E656FE4F828993890E945F053092E5
:101E5000550620925406F0925706E09256068FE5FA
:101E600091E00E945D0580913C0290913D02D89ED8
:101E7000F001D99EF00D1124E656FE4F808191812C
:101E80000E945F055092550640925406F092570604
:101E9000E092560686E691E00E945D0580913C0244
:101EA00090913D02D89EF001D99EF00D1124E65686
:101EB000FE4F828193810E945F05309255062092E9
:101EC000540610935706009356068DE691E00E9443
:101ED0005D0580913C0290913D02D89EF001D99E13
:101EE000F00D1124E656FE4F848195810E945F0516
:101EF000509255064092540610935706009356068A
:101F000084E791E00E945D0580913C0290913D0242
:101F1000D89EF001D99EF00D1124E656FE4F868121
:101F200097810E945F053092550620925406B09228
:101F30005706A09256068BE791E00E945D058091BE
:101F40003C0290913D02D89EF001D99EF00D1124E3
:101F5000E656FE4F808591850E945F05509255069A
:101F600040925406B0925706A092560682E891E03D
:101F70000E945D0580913C0290913D02D89EF00147
:101F8000D99EF00D1124E656FE4F828593850E945E
:101F90005F05309255062092540646E350E0509378
:101FA00057064093560689E891E00E945D058091AE
:101FB0003C0290913D02D89EF001D99EF00D112473
:101FC000E656FE4F848595850E945F055092550622
:101FD0004092540686E390E090935706809356060D
:101FE00080E991E00E945D0580913C0290913D0264
:101FF000D89EF001D99EF00D1124E656FE4F86853D
:1020000097850E945F0580913E0290913F02019763
:1020100009F061C0E0913A02F0913B02EA30F1052B
:1020200008F055C0E25AFF4F0C94B91386E090E0D7
:10203000909355068093540604C090925506809262
:102040005406709257066092560641C086E090E0B2
:10205000909355068093540604C090925506809242
:102060005406F0925706E092560631C086E090E0A2
:10207000909355068093540604C090925506809222
:102080005406109357060093560621C086E090E050
:10209000909355068093540604C090925506809202
:1020A0005406B0925706A092560611C086E090E002
:1020B000909355068093540604C0909255068092E2
:1020C000540686E390E0909357068093560688E97D
:1020D00091E00E945D0580913E0290913F0202973F
:1020E00009F061C0E0913A02F0913B02EA30F1055B
:1020F00008F055C0E859FF4F0C94B91310925506DB
:102100001092540606C08CE390E09093550680939D
:102110005406709257066092560641C010925506BA
:102120001092540606C08CE390E09093550680937D
:102130005406F0925706E092560631C010925506AA
:102140001092540606C08CE390E09093550680935D
:102150005406109357060093560621C01092550658
:102160001092540606C08CE390E09093550680933D
:102170005406B0925706A092560611C0109255060A
:102180001092540606C08CE390E09093550680931D
:10219000540686E390E0909357068093560687E9AD
:1021A00091E00E945D058091400290914102892B4F
:1021B000C1F40E94010A83FD14C00E94010A82FD3D
:1021C00010C00E94010A87FD0CC00E94010A84FD14
:1021D00008C00E94010A85FD04C00E94010A86FF12
:1021E000DEC180E00E944E0580E090E0892B09F47A
:1021F00058CC0E94000046CC2115310591F0FB011E
:10220000EA0FFB1FEC51FF4FE491F0E03F01082C77
:1022100002C0759467940A94E2F7F701C0806C28B5
:1022200060826F5F7F4FFFEFEF1AFF0AEFEFAE1A8A
:10223000BE0A6835710509F0ABCB9ACB81309105A8
:1022400019F489E090E08ACC8230910529F410924B
:102250003B0210923A0286CC8430910529F4D09347
:102260003B02C0933A027ECC8630910519F484E09B
:1022700090E074CC8330910519F481E090E06ECC4D
:102280008530910519F483E090E068CC079709F058
:1022900069CC85E090E062CC029709F063CC209194
:1022A0003C0230913D0280913A0290913B024AE01B
:1022B000429FF001439FF00D1124E80FF91FEE0F2C
:1022C000FF1FE656FE4F80819181873E23E09207F3
:1022D00009F448CC01969183808344CC89309105E0
:1022E00029F430933B0220933A025ECC009729F404
:1022F000D0933B02C0933A0257CC8230910519F437
:1023000084E090E005C08430910539F486E090E0E7
:1023100090933B0280933A0247CC8130910519F4A7
:1023200083E090E0F5CF8330910519F485E090E0EB
:10233000EFCF059709F038CC87E090E0E9CF223065
:10234000310509F031CC20913C0230913D02809161
:102350003A0290913B024AE0429FF001439FF00D08
:102360001124E80FF91FEE0FFF1FE656FE4F808184
:1023700091818230910518F41182108215CC019759
:102380009183808311CC80913A0290913B028930F5
:10239000910519F488E090E01BC08130910529F483
:1023A00010923B0210923A0224CC8330910529F41A
:1023B000D0933B02C0933A021CCC8530910519F4AE
:1023C00084E090E005C0079709F013CC86E090E028
:1023D00090933B0280933A020CCC8230910529F411
:1023E00030933D0220933C0204CC8330910529F4C4
:1023F000D0933D02C0933C02FCCB8430910519F48C
:1024000083E090E005C08530910539F484E090E0E8
:1024100090933D0280933C02ECCB8630910519F4F9
:1024200085E090E0F5CF8730910519F486E090E0E3
:10243000EFCF892B09F0DDCB87E090E0E9CF029761
:1024400009F0D7CB20913C0230913D0280913A02B5
:1024500090913B024AE0429FF001439FF00D11240E
:10246000E80FF91FEE0FFF1FE656FE4F80819181A6
:102470008630910518F411821082BBCB05979183A9
:102480008083B7CB80913A0290913B0288309105CE
:1024900019F489E090E018C0009729F430933B02CA
:1024A00020933A02CACB8230910519F483E090E080
:1024B0000BC08430910519F485E090E005C00697C3
:1024C00009F0BBCB87E090E090933B0280933A0207
:1024D000B4CB8130910529F4D0933D02C0933C02E6
:1024E000ACCB8230910519F483E090E005C08330D5
:1024F000910539F484E090E090933D0280933C0292
:102500009CCB8430910519F485E090E0F5CF8530BF
:10251000910519F486E090E0EFCF8630910519F42B
:1025200087E090E0E9CF079709F087CB10923D0252
:1025300010923C0282CB2230310509F07ECB2091F3
:102540003C0230913D0280913A0290913B024AE078
:10255000429FF001439FF00D1124E80FF91FEE0F89
:10256000FF1FE656FE4F808191810596883E43E02D
:10257000940710F087EE93E0918380835ECB019700
:1025800009F075CBD0933F02C0933E0270CB029707
:1025900009F088CB30933F0220933E0283CB81E049
:1025A00090E090934102809340021BCEE9E6F6E072
:1025B0001382128288EE93E0A0E0B0E084839583DA
:1025C000A683B78380E191E0918380838FEF9FEFB3
:1025D00095878487E5E4F6E01382128211861286DD
:1025E00080E1838710861782158682E291E09183CD
:1025F000808380E391E095838483108A1786128A12
:10260000118A81E0838B148A858B168A0895DF9264
:10261000EF92FF920F931F93CF93DF93D82EF92E53
:10262000E42E062F10E0C8010196880F0E944E0686
:1026300083E00E944E06CD2DDF2D0C0F1D1FC0170D
:10264000D10789F0E7FE03C0FE01849101C08881B3
:102650000E944E06F82E80E00E944E068F212196A1
:102660008111EDCF01C081E0DF91CF911F910F91DA
:10267000FF90EF90DF9008950F931F93CF93DF9318
:102680008C0181E090E00E94090A80FF32C08AE05C
:1026900090E00E94090A9FEF980F9E3F50F522E3B9
:1026A00030E0D80150963C932E931F9728E330E0FA
:1026B00052963C932E935197CBE0D0E0D801ED9108
:1026C000FC910190F081E02D682FC8010995CE01A1
:1026D0000E94090A2196C131D10581F780E00E944C
:1026E0004E0588EE93E0DF91CF911F910F910C94EE
:1026F000FC09DF91CF911F910F91089504970C94DD
:102700003C13F999FECF92BD81BDF89A992780B507
:102710000895262FF999FECF1FBA92BD81BD20BD25
:102720000FB6F894FA9AF99A0FBE01960895A1E2AD
:102730001A2EAA1BBB1BFD010DC0AA1FBB1FEE1F3B
:10274000FF1FA217B307E407F50720F0A21BB30B86
:10275000E40BF50B661F771F881F991F1A9469F702
:1027600060957095809590959B01AC01BD01CF015E
:102770000895EE0FFF1F0590F491E02D099481E07C
:0C27800090E0F8940C94C413F894FFCF80
:10278C0000E1000000000000FFFFFFFF0000000060
:10279C002804BB0449043E048F044D046B04000060
:1027AC000000260AC909F509F4093C13FCFF0000D6
:1027BC007E1300C180810000005031005032005067
:1027CC00330050340050350050360050370050382C
:1027DC00004C6966652D00506F69736F6E2D004358
:1027EC006D6472312D00436D6472322D00436D6443
:1027FC0072332D00436D6472342D00436D64723559
:10280C002D00436D6472362D00436D6472372D00BC
:0A281C00436D6472382D003E3E004B
:00000001FF
